:100000000C9434000C9451000C9451000C94510049
:100010000C9451000C9451000C9451000C9451001C
:100020000C9451000C9451000C9451000C94CE008F
:100030000C9451000C9451000C9451000C945100FC
:100040000C9451000C9451000C9451000C945100EC
:100050000C9451000C9451000C9451000C945100DC
:100060000C9451000C94510011241FBECFEFD8E026
:10007000DEBFCDBF11E0A0E0B1E0E8E4F2E002C0F5
:1000800005900D92A630B107D9F711E0A6E0B1E0D6
:1000900001C01D92AC30B107E1F70E9402010C943F
:1000A00022010C9400009C016130710511F4299A21
:1000B00003C0672B09F4299885B191E0982795B979
:1000C00080910A0190910B01821793072CF02898D8
:1000D0001092050110920401809104019091050194
:1000E000019749F480910A0190910B010196909338
:1000F0000B0180930A0108959C016130710511F490
:100100005F9A03C0672B09F45F988BB190E498273E
:100110009BB98091080190910901821793072CF0F7
:100120005E98109203011092020180910201909159
:100130000301019749F4809108019091090101960A
:10014000909309018093080108959C016130710525
:1001500011F45D9A03C0672B09F45D988BB190E1AF
:1001600098279BB980910601909107018217930708
:100170002CF05C9810920101109200018091000116
:1001800090910101019749F4809106019091070136
:100190000196909307018093060108951F920F9294
:1001A0000FB60F9211242F933F934F935F936F934A
:1001B0007F938F939F93AF93BF93EF93FF9361E0F0
:1001C00070E08AE090E00E94530061E070E084E11A
:1001D00090E00E947C0061E070E08EE190E00E947F
:1001E000A500FF91EF91BF91AF919F918F917F916A
:1001F0006F915F914F913F912F910F900FBE0F9094
:100200001F90189584B1836084B98AB1806C8AB9D3
:100210008AB180638AB9809181008860809381006F
:1002200086E492E1909389008093880080916F002A
:10023000826080936F00809181008560809381004F
:080240007894FFCFF894FFCF82
:06024800010001000100AD
:00000001FF
