:100000000C9434000C9451000C9451000C94510049
:100010000C9451000C9451000C9451000C9451001C
:100020000C9451000C9451000C9451000C94AC01B0
:100030000C9451000C9451000C9451000C945100FC
:100040000C9451000C9451000C9451000C945100EC
:100050000C9451000C9451000C9451000C945100DC
:100060000C9451000C94510011241FBECFEFD8E026
:10007000DEBFCDBF11E0A0E0B1E0E2E1F4E002C0FC
:1000800005900D92A03CB107D9F711E0A0ECB1E0CA
:1000900001C01D92A63DB107E1F70E94E5010C9455
:1000A00007020C9400000F931F93E091C001F091A0
:1000B000C10120910C0130910D012E173F070CF466
:1000C00048C18130910509F061C090930B01809384
:1000D0000A014130510511F4299A03C0452B09F456
:1000E000299895B181E0892785B90091CC011091BB
:1000F000CD012091CE013091CF01CB01AA2797FDF0
:10010000A095BA2F081719072A073B0730F028983F
:10011000299810920B0110920A014091CC01509144
:10012000CD016091CE017091CF01481759076A0740
:100130007B0788F01092CC011092CD011092CE0175
:100140001092CF018091C0019091C10101969093CE
:10015000C1018093C00180910A0190910B01019728
:1001600009F0F7C08091CC019091CD01A091CE0112
:10017000B091CF010196A11DB11D8093CC01909348
:10018000CD01A093CE01B093CF01E3C082309105A1
:1001900009F044C081E090E0909309018093080148
:1001A0004130510511F45F9A03C0452B09F45F9863
:1001B0009BB180E489278BB98091CA019091CB01D2
:1001C0008617970734F05E985F9810920901109295
:1001D00008018091CA019091CB01861797076CF0B6
:1001E0001092CB011092CA018091C0019091C1017F
:1001F00001969093C1018093C00180910801909174
:100200000901019709F0A5C08091CA019091CB0125
:1002100001969093CB018093CA019BC0039709F08C
:1002200044C081E090E09093070180930601413043
:10023000510511F45D9A03C0452B09F45D989BB1FB
:1002400080E189278BB98091C8019091C9018617F7
:10025000970734F05C985D981092070110920601A0
:100260008091C8019091C901861797076CF0109290
:10027000C9011092C8018091C0019091C1010196FD
:100280009093C1018093C001809106019091070174
:10029000019709F05EC08091C8019091C901019653
:1002A0009093C9018093C80154C081E090E090937D
:1002B0000501809304014A30510511F4299A0EC0BA
:1002C0004B30510511F4299A04C04130510519F4FD
:1002D00029985F9A04C0452B11F429985F989BB127
:1002E00080E489278BB995B181E0892785B9809110
:1002F000C6019091C7018617970744F028985E9829
:1003000029985F9810920501109204018091C6010E
:100310009091C701861797076CF01092C701109251
:10032000C6018091C0019091C10101969093C101D5
:100330008093C0018091040190910501019749F4D7
:100340008091C6019091C70101969093C701809357
:10035000C6011F910F9108951F920F920FB60F9231
:1003600011242F933F934F935F936F937F938F93BA
:100370009F93AF93BF93EF93FF938091C0019091B0
:10038000C101880F991FFC01E45BFE4F4081518140
:10039000FC01E05FFE4F60817181FC01EA57FE4F76
:1003A000808191810E945300FF91EF91BF91AF91A5
:1003B0009F918F917F916F915F914F913F912F917D
:1003C0000F900FBE0F901F90189584B1836084B971
:1003D0008AB1806C8AB98AB180638AB980918100C0
:1003E00088608093810080910E0190910F0190931D
:1003F00089008093880080916F00826080936F00F5
:10040000809181008560809381007894FFCFF8947B
:02041000FFCF1C
:100412000100010001000100010001001C000100B7
:100422001027307510273075983A10271027983A00
:100432001027983A10273075983A10273075983A55
:100442001027204E204E1027983A10271027401FC1
:100452001027983A1027983A30753075000001003D
:100462000000000001000100000001000100000086
:100472000000000000000100010000000000000078
:100482000A0001000000000001000000000000005E
:10049200010001000100030001000200010001004F
:1004A200020002000100030002000300010002003A
:1004B2000300010002000300040004000300020024
:1004C2000300030001000300010003000200020018
:00000001FF
