:100000000C9434000C9451000C9451000C94510049
:100010000C9451000C9451000C9451000C9451001C
:100020000C9451000C9451000C9451000C947A00E3
:100030000C9451000C9451000C9451000C945100FC
:100040000C9451000C9451000C9451000C945100EC
:100050000C9451000C9451000C9451000C945100DC
:100060000C9451000C94510011241FBECFEFD8E026
:10007000DEBFCDBF11E0A0E0B1E0EAE2F2E002C0F5
:1000800005900D92A630B107D9F711E0A6E0B1E0D6
:1000900001C01D92AC30B107E1F70E94F3000C944F
:1000A00013010C9400006130710511F4299A03C00A
:1000B000672B09F4299895B181E0892785B980914A
:1000C0000A0190910B0197FD05C028981092050137
:1000D000109204018091040190910501019749F467
:1000E00080910A0190910B01019690930B018093EE
:1000F0000A0108951F920F920FB60F9211242F93A9
:100100003F934F935F936F937F938F939F93AF939F
:10011000BF93EF93FF9361E070E08AE090E00E946C
:100120005300FF91EF91BF91AF919F918F917F917C
:100130006F915F914F913F912F910F900FBE0F9054
:100140001F9018959C016130710511F45E9A03C0EF
:10015000672B09F45E989BB190589BB98091080178
:1001600090910901821793072CF05F981092030178
:10017000109202018091020190910301019749F4CC
:100180008091080190910901019690930901809353
:10019000080108959C016130710511F4449A03C06F
:1001A000672B09F4449888B190E2982798B9809118
:1001B000060190910701821793072CF04598109241
:1001C00001011092000180910001909101010197BD
:1001D00049F48091060190910701019690930701DF
:1001E00080930601089584B1836084B98AB1806CDC
:1001F0008AB987B1806387B98091810088608093D4
:10020000810086E492E19093890080938800809138
:100210006F00826080936F00809181008560809381
:0A02200081007894FFCFF894FFCF1F
:06022A00010001000100CB
:00000001FF
