:100000000C9434000C9451000C9451000C94510049
:100010000C9451000C9451000C9451000C9451001C
:100020000C9451000C9451000C9451000C947C00E1
:100030000C9451000C9451000C9451000C945100FC
:100040000C9451000C9451000C9451000C945100EC
:100050000C9451000C9451000C9451000C945100DC
:100060000C9451000C94510011241FBECFEFD8E026
:10007000DEBFCDBF11E0A0E0B1E0E0E8F1E002C0FA
:1000800005900D92A230B107D9F711E0A2E0B1E0DE
:1000900001C01D92A430B107E1F70E94A4000C94A6
:1000A000BE000C9400009C016130710511F4299A86
:1000B00003C0672B09F4299885B191E0982795B979
:1000C0008091020190910301821793072CF02898E8
:1000D00010920101109200018091000190910101A4
:1000E000019749F480910201909103010196909348
:1000F00003018093020108951F920F920FB60F9291
:1001000011242F933F934F935F936F937F938F931C
:100110009F93AF93BF93EF93FF9361E070E08AE00A
:1001200090E00E945300FF91EF91BF91AF919F919A
:100130008F917F916F915F914F913F912F910F9090
:100140000FBE0F901F901895209A219A299A80919E
:10015000810088608093810086E492E19093890019
:100160008093880080916F00826080936F008091FF
:1001700081008560809381007894FFCFF894FFCF51
:0201800001007C
:00000001FF
