:100000000C9434000C9451000C9451000C94510049
:100010000C9451000C9451000C9451000C9451001C
:100020000C9451000C9451000C9451000C94AC01B0
:100030000C9451000C9451000C9451000C945100FC
:100040000C9451000C9451000C9451000C945100EC
:100050000C9451000C9451000C9451000C945100DC
:100060000C9451000C94510011241FBECFEFD8E026
:10007000DEBFCDBF11E0A0E0B1E0E2E1F4E002C0FC
:1000800005900D92A431B107D9F711E0A4E1B1E0D8
:1000900001C01D92AC32B107E1F70E94E5010C945A
:1000A00007020C9400000F931F93E0911401F0914C
:1000B000150120911601309117012E173F070CF4FE
:1000C00048C18130910509F061C090930B01809384
:1000D0000A014130510511F4299A03C0452B09F456
:1000E000299895B181E0892785B900912201109165
:1000F00023012091240130912501CB01AA2797FDEE
:10010000A095BA2F081719072A073B0730F028983F
:10011000299810920B0110920A01409122015091EE
:1001200023016091240170912501481759076A073E
:100130007B0788F010922201109223011092240173
:1001400010922501809114019091150101969093D0
:1001500015018093140180910A0190910B01019780
:1001600009F0F7C08091220190912301A091240110
:10017000B09125010196A11DB11D8093220190939C
:100180002301A0932401B0932501E3C0823091059F
:1001900009F044C081E090E0909309018093080148
:1001A0004130510511F45F9A03C0452B09F45F9863
:1001B0009BB180E489278BB9809120019091210126
:1001C0008617970734F05E985F9810920901109295
:1001D00008018091200190912101861797076CF00A
:1001E000109221011092200180911401909115012B
:1001F00001969093150180931401809108019091CC
:100200000901019709F0A5C0809120019091210179
:10021000019690932101809320019BC0039709F0E0
:1002200044C081E090E09093070180930601413043
:10023000510511F45D9A03C0452B09F45D989BB1FB
:1002400080E189278BB980911E0190911F0186174B
:10025000970734F05C985D981092070110920601A0
:1002600080911E0190911F01861797076CF01092E4
:100270001F0110921E0180911401909115010196A9
:1002800090931501809314018091060190910701CC
:10029000019709F05EC080911E0190911F010196A7
:1002A00090931F0180931E0154C081E090E09093D1
:1002B0000501809304014A30510511F4299A0EC0BA
:1002C0004B30510511F4299A04C04130510519F4FD
:1002D00029985D9A04C0452B11F429985D989BB12B
:1002E00080E189278BB995B181E0892785B9809113
:1002F0001C0190911D018617970744F028985C987F
:1003000029985D98109205011092040180911C01BA
:1003100090911D01861797076CF010921D011092A5
:100320001C01809114019091150101969093150183
:10033000809314018091040190910501019749F483
:1003400080911C0190911D01019690931D01809355
:100350001C011F910F9108951F920F920FB60F92DB
:1003600011242F933F934F935F936F937F938F93BA
:100370009F93AF93BF93EF93FF938091140190915C
:100380001501880F991FFC01E05FFE4F40815181EC
:10039000FC01E25FFE4F60817181FC01EE5EFE4F69
:1003A000808191810E945300FF91EF91BF91AF91A5
:1003B0009F918F917F916F915F914F913F912F917D
:1003C0000F900FBE0F901F90189584B1836084B971
:1003D0008AB1806C8AB98AB180638AB980918100C0
:1003E00088608093810080910C0190910D01909321
:1003F00089008093880080916F00826080936F00F5
:10040000809181008560809381007894FFCFF8947B
:02041000FFCF1C
:100412000100010001000100010001000500FF7F51
:0404220001000200D3
:00000001FF
