:100000000C9434000C9451000C9451000C94510049
:100010000C9451000C9451000C9451000C9451001C
:100020000C9451000C9451000C9451000C94E0007D
:100030000C9451000C9451000C9451000C945100FC
:100040000C9451000C9451000C9451000C945100EC
:100050000C9451000C9451000C9451000C945100DC
:100060000C9451000C94510011241FBECFEFD8E026
:10007000DEBFCDBF11E0A0E0B1E0E8E7F2E002C0F2
:1000800005900D92AC30B107D9F711E0ACE0B1E0CA
:1000900001C01D92A231B107E1F70E941A010C9430
:1000A0003A010C940000209104013091050182175F
:1000B000930739F54130510511F4299A03C0452BB6
:1000C00009F4299895B181E0892785B980911001BB
:1000D00090911101861797072CF0289810920B0128
:1000E00010920A0180910A0190910B01019749F445
:1000F00080911001909111010196909311018093CC
:100100001001089520910201309103018217930795
:1001100039F54130510511F45F9A03C0452B09F4BC
:100120005F989BB180E489278BB980910E019091F3
:100130000F01861797072CF05E9810920901109214
:1001400008018091080190910901019749F480917B
:100150000E0190910F01019690930F0180930E0173
:10016000089520910001309101018217930739F51C
:100170004130510511F45D9A03C0452B09F45D9897
:100180009BB180E189278BB980910C0190910D0181
:10019000861797072CF05C981092070110920601C1
:1001A0008091060190910701019749F480910C011B
:1001B00090910D01019690930D0180930C0108958B
:1001C0001F920F920FB60F9211242F933F934F93CC
:1001D0005F936F937F938F939F93AF93BF93EF93AF
:1001E000FF9341E050E06AE070E081E090E00E941F
:1001F000530041E050E064E170E080E090E00E9454
:10020000820041E050E06EE170E081E090E00E9409
:10021000B100FF91EF91BF91AF919F918F917F912D
:100220006F915F914F913F912F910F900FBE0F9063
:100230001F90189584B1836084B98AB1806C8AB9A3
:100240008AB180638AB9809181008860809381003F
:1002500086E492E1909389008093880080916F00FA
:10026000826080936F00809181008560809381001F
:080270007894FFCFF894FFCF52
:0C02780001000100010001000100010074
:00000001FF
