:100000000C9434000C9451000C9451000C94510049
:100010000C9451000C9451000C9451000C9451001C
:100020000C9451000C9451000C9451000C9451000C
:100030000C9451000C9451000C9451000C945100FC
:100040000C9451000C9451000C9451000C945100EC
:100050000C9451000C9451000C9451000C945100DC
:100060000C9451000C94510011241FBECFEFD8E026
:10007000DEBFCDBF11E0A0E0B1E0EAE4F3E002C0F2
:1000800005900D92A231B107D9F711E0A2E1B1E0DC
:1000900001C01D92AC32B107E1F70E947A010C94C5
:1000A000A3010C940000E0911201F0911301209142
:1000B0001401309115012E173F070CF418C181303F
:1000C000910509F070C090930B0180930A014130B3
:1000D000510541F4299AAB01662757FD6095762FAB
:1000E00021E051C0452BB9F72998F5CF8091220125
:1000F00090912301A0912401B09125010196A11DA9
:10010000B11D8093220190932301A0932401B09309
:1001100025018091220190912301A0912401B091A9
:100120002501481759076A077B0768F18FE99FE0A7
:100130000197F1F700C0000085B1822785B9809151
:10014000220190912301A0912401B09125018417EF
:100150009507A607B70750F21092220110922301CB
:1001600010922401109225012898299810920B01D1
:1001700010920A01809112019091130101969093BF
:1001800013018093120180910A0190910B01019754
:1001900009F0ADC0109222011092230110922401A7
:1001A00010922501B6CF8230910509F04FC081E051
:1001B00090E090930901809308014130510519F4B2
:1001C0005F9A20E437C0452BE1F75F98FACF809122
:1001D00020019091210101969093210180932001AB
:1001E0008091200190912101681779071CF18FE916
:1001F0009FE00197F1F700C000008BB182278BB917
:1002000080912001909121018617970704F31092A5
:100210002101109220015E985F98109209011092BE
:10022000080180911201909113010196909313019E
:10023000809312018091080190910901019709F0C2
:1002400056C01092210110922001CACF039709F0E5
:100250004EC081E090E09093070180930601413009
:10026000510519F45D9A20E137C0452BE1F75D98FF
:10027000FACF80911E0190911F01019690931F016A
:1002800080931E0180911E0190911F0168177907CC
:100290001CF18FE99FE00197F1F700C000008BB1DE
:1002A00082278BB980911E0190911F0186179707B5
:1002B00004F310921F0110921E015C985D98109239
:1002C000070110920601809112019091130101968D
:1002D0009093130180931201809106019091070180
:1002E000019729F410921F0110921E01CBCF80E0DC
:1002F00090E0089584B1836084B98AB1806C8AB932
:100300008AB180638AB97894809112019091130127
:10031000DC01AA0FBB1FFD01EA5EFE4F2081318187
:10032000880F991F880F991FFC01E45FFE4F4081E1
:10033000518162817381FD01E05FFE4F8081918177
:0A0340000E945300E1CFF894FFCFB4
:10034A00010001000100010001000100409C0000C1
:02035A000100A0
:00000001FF
