:100000000C9434000C9451000C9451000C94510049
:100010000C9451000C9451000C9451000C9451001C
:100020000C9451000C9451000C9451000C94AC01B0
:100030000C9451000C9451000C9451000C945100FC
:100040000C9451000C9451000C9451000C945100EC
:100050000C9451000C9451000C9451000C945100DC
:100060000C9451000C94510011241FBECFEFD8E026
:10007000DEBFCDBF11E0A0E0B1E0E2E1F4E002C0FC
:1000800005900D92A232B107D9F711E0A2E2B1E0DA
:1000900001C01D92A833B107E1F70E94E5010C945D
:1000A00007020C9400000F931F93E0912201F0913E
:1000B000230120910C0130910D012E173F070CF404
:1000C00048C18130910509F061C090930B01809384
:1000D0000A014130510511F4299A03C0452B09F456
:1000E000299895B181E0892785B900912E01109159
:1000F0002F012091300130913101CB01AA2797FDCA
:10010000A095BA2F081719072A073B0730F028983F
:10011000299810920B0110920A0140912E015091E2
:100120002F016091300170913101481759076A071A
:100130007B0788F010922E0110922F01109230014F
:1001400010923101809122019091230101969093A8
:1001500023018093220180910A0190910B01019764
:1001600009F0F7C080912E0190912F01A0913001EC
:10017000B09131010196A11DB11D80932E01909384
:100180002F01A0933001B0933101E3C0823091057B
:1001900009F044C081E090E0909309018093080148
:1001A0004130510511F45F9A03C0452B09F45F9863
:1001B0009BB180E489278BB980912C0190912D010E
:1001C0008617970734F05E985F9810920901109295
:1001D000080180912C0190912D01861797076CF0F2
:1001E00010922D0110922C018091220190912301F7
:1001F00001969093230180932201809108019091B0
:100200000901019709F0A5C080912C0190912D0161
:10021000019690932D0180932C019BC0039709F0C8
:1002200044C081E090E09093070180930601413043
:10023000510511F45D9A03C0452B09F45D989BB1FB
:1002400080E189278BB980912A0190912B01861733
:10025000970734F05C985D981092070110920601A0
:1002600080912A0190912B01861797076CF01092CC
:100270002B0110922A018091220190912301019675
:1002800090932301809322018091060190910701B0
:10029000019709F05EC080912A0190912B0101968F
:1002A00090932B0180932A0154C081E090E09093B9
:1002B0000501809304014A30510511F4299A0EC0BA
:1002C0004B30510511F4299A04C04130510519F4FD
:1002D00029985D9A04C0452B11F429985D989BB12B
:1002E00080E189278BB995B181E0892785B9809113
:1002F0002801909129018617970744F028985C9867
:1003000029985D98109205011092040180912801AE
:1003100090912901861797076CF01092290110928D
:10032000280180912201909123010196909323014D
:10033000809322018091040190910501019749F475
:100340008091280190912901019690932901809331
:1003500028011F910F9108951F920F920FB60F92CF
:1003600011242F933F934F935F936F937F938F93BA
:100370009F93AF93BF93EF93FF938091220190914E
:100380002301880F991FFC01EA5EFE4F40815181D5
:10039000FC01E05FFE4F60817181FC01E45EFE4F75
:1003A000808191810E945300FF91EF91BF91AF91A5
:1003B0009F918F917F916F915F914F913F912F917D
:1003C0000F900FBE0F901F90189584B1836084B971
:1003D0008AB1806C8AB98AB180638AB980918100C0
:1003E00088608093810080910E0190910F0190931D
:1003F00089008093880080916F00826080936F00F5
:10040000809181008560809381007894FFCFF8947B
:02041000FFCF1C
:1004120001000100010001000100010002000400CE
:1004220030753075307501000100010001000100D6
:020432000100C7
:00000001FF
